{
  "_format": "hh-sol-artifact-1",
  "contractName": "ZKVote",
  "sourceName": "contracts/ZKVote.sol",
  "abi": [
    {
      "inputs": [
        {
          "internalType": "uint32",
          "name": "_levels",
          "type": "uint32"
        },
        {
          "internalType": "contract IHasher",
          "name": "_hasher",
          "type": "address"
        },
        {
          "internalType": "contract IVerifier",
          "name": "_verifier",
          "type": "address"
        },
        {
          "internalType": "string",
          "name": "_title",
          "type": "string"
        },
        {
          "internalType": "uint256",
          "name": "_numOptions",
          "type": "uint256"
        },
        {
          "internalType": "string[10]",
          "name": "opzioni",
          "type": "string[10]"
        }
      ],
      "stateMutability": "nonpayable",
      "type": "constructor"
    },
    {
      "anonymous": false,
      "inputs": [
        {
          "indexed": true,
          "internalType": "bytes32",
          "name": "commitment",
          "type": "bytes32"
        },
        {
          "indexed": false,
          "internalType": "uint32",
          "name": "leafIndex",
          "type": "uint32"
        },
        {
          "indexed": false,
          "internalType": "uint256",
          "name": "timestamp",
          "type": "uint256"
        }
      ],
      "name": "Commit",
      "type": "event"
    },
    {
      "inputs": [],
      "name": "FIELD_SIZE",
      "outputs": [
        {
          "internalType": "uint256",
          "name": "",
          "type": "uint256"
        }
      ],
      "stateMutability": "view",
      "type": "function"
    },
    {
      "inputs": [],
      "name": "ROOT_HISTORY_SIZE",
      "outputs": [
        {
          "internalType": "uint32",
          "name": "",
          "type": "uint32"
        }
      ],
      "stateMutability": "view",
      "type": "function"
    },
    {
      "inputs": [],
      "name": "ZERO_VALUE",
      "outputs": [
        {
          "internalType": "uint256",
          "name": "",
          "type": "uint256"
        }
      ],
      "stateMutability": "view",
      "type": "function"
    },
    {
      "inputs": [
        {
          "internalType": "bytes32",
          "name": "",
          "type": "bytes32"
        }
      ],
      "name": "commitments",
      "outputs": [
        {
          "internalType": "bool",
          "name": "",
          "type": "bool"
        }
      ],
      "stateMutability": "view",
      "type": "function"
    },
    {
      "inputs": [],
      "name": "currentRootIndex",
      "outputs": [
        {
          "internalType": "uint32",
          "name": "",
          "type": "uint32"
        }
      ],
      "stateMutability": "view",
      "type": "function"
    },
    {
      "inputs": [
        {
          "internalType": "uint256",
          "name": "",
          "type": "uint256"
        }
      ],
      "name": "filledSubtrees",
      "outputs": [
        {
          "internalType": "bytes32",
          "name": "",
          "type": "bytes32"
        }
      ],
      "stateMutability": "view",
      "type": "function"
    },
    {
      "inputs": [],
      "name": "getLastRoot",
      "outputs": [
        {
          "internalType": "bytes32",
          "name": "",
          "type": "bytes32"
        }
      ],
      "stateMutability": "view",
      "type": "function"
    },
    {
      "inputs": [],
      "name": "getOptions",
      "outputs": [
        {
          "internalType": "string[]",
          "name": "",
          "type": "string[]"
        }
      ],
      "stateMutability": "view",
      "type": "function"
    },
    {
      "inputs": [],
      "name": "getTitle",
      "outputs": [
        {
          "internalType": "string",
          "name": "",
          "type": "string"
        }
      ],
      "stateMutability": "view",
      "type": "function"
    },
    {
      "inputs": [],
      "name": "getVoti",
      "outputs": [
        {
          "internalType": "uint256[]",
          "name": "",
          "type": "uint256[]"
        }
      ],
      "stateMutability": "view",
      "type": "function"
    },
    {
      "inputs": [
        {
          "internalType": "uint256",
          "name": "_left",
          "type": "uint256"
        },
        {
          "internalType": "uint256",
          "name": "_right",
          "type": "uint256"
        }
      ],
      "name": "hashLeftRight",
      "outputs": [
        {
          "internalType": "bytes32",
          "name": "",
          "type": "bytes32"
        }
      ],
      "stateMutability": "view",
      "type": "function"
    },
    {
      "inputs": [],
      "name": "hasher",
      "outputs": [
        {
          "internalType": "contract IHasher",
          "name": "",
          "type": "address"
        }
      ],
      "stateMutability": "view",
      "type": "function"
    },
    {
      "inputs": [
        {
          "internalType": "bytes32",
          "name": "_root",
          "type": "bytes32"
        }
      ],
      "name": "isKnownRoot",
      "outputs": [
        {
          "internalType": "bool",
          "name": "",
          "type": "bool"
        }
      ],
      "stateMutability": "view",
      "type": "function"
    },
    {
      "inputs": [],
      "name": "levels",
      "outputs": [
        {
          "internalType": "uint32",
          "name": "",
          "type": "uint32"
        }
      ],
      "stateMutability": "view",
      "type": "function"
    },
    {
      "inputs": [],
      "name": "nextIndex",
      "outputs": [
        {
          "internalType": "uint32",
          "name": "",
          "type": "uint32"
        }
      ],
      "stateMutability": "view",
      "type": "function"
    },
    {
      "inputs": [
        {
          "internalType": "bytes32",
          "name": "",
          "type": "bytes32"
        }
      ],
      "name": "nullifiers",
      "outputs": [
        {
          "internalType": "bool",
          "name": "",
          "type": "bool"
        }
      ],
      "stateMutability": "view",
      "type": "function"
    },
    {
      "inputs": [],
      "name": "owner",
      "outputs": [
        {
          "internalType": "address",
          "name": "",
          "type": "address"
        }
      ],
      "stateMutability": "view",
      "type": "function"
    },
    {
      "inputs": [
        {
          "internalType": "uint256",
          "name": "_hash",
          "type": "uint256"
        },
        {
          "internalType": "uint256",
          "name": "_commitment",
          "type": "uint256"
        },
        {
          "internalType": "address",
          "name": "_voter",
          "type": "address"
        }
      ],
      "name": "registerCommitment",
      "outputs": [],
      "stateMutability": "nonpayable",
      "type": "function"
    },
    {
      "inputs": [
        {
          "internalType": "address",
          "name": "_validator",
          "type": "address"
        }
      ],
      "name": "registerValidator",
      "outputs": [],
      "stateMutability": "nonpayable",
      "type": "function"
    },
    {
      "inputs": [
        {
          "internalType": "address",
          "name": "_voter",
          "type": "address"
        }
      ],
      "name": "registerWhitelist",
      "outputs": [],
      "stateMutability": "nonpayable",
      "type": "function"
    },
    {
      "inputs": [
        {
          "internalType": "uint256",
          "name": "",
          "type": "uint256"
        }
      ],
      "name": "roots",
      "outputs": [
        {
          "internalType": "bytes32",
          "name": "",
          "type": "bytes32"
        }
      ],
      "stateMutability": "view",
      "type": "function"
    },
    {
      "inputs": [
        {
          "internalType": "address",
          "name": "",
          "type": "address"
        }
      ],
      "name": "validators",
      "outputs": [
        {
          "internalType": "bool",
          "name": "",
          "type": "bool"
        }
      ],
      "stateMutability": "view",
      "type": "function"
    },
    {
      "inputs": [],
      "name": "verifier",
      "outputs": [
        {
          "internalType": "contract IVerifier",
          "name": "",
          "type": "address"
        }
      ],
      "stateMutability": "view",
      "type": "function"
    },
    {
      "inputs": [
        {
          "internalType": "uint256",
          "name": "_nullifier",
          "type": "uint256"
        },
        {
          "internalType": "uint256",
          "name": "_root",
          "type": "uint256"
        },
        {
          "internalType": "uint256",
          "name": "_option",
          "type": "uint256"
        },
        {
          "internalType": "uint256[2]",
          "name": "_proof_a",
          "type": "uint256[2]"
        },
        {
          "internalType": "uint256[2][2]",
          "name": "_proof_b",
          "type": "uint256[2][2]"
        },
        {
          "internalType": "uint256[2]",
          "name": "_proof_c",
          "type": "uint256[2]"
        }
      ],
      "name": "vote",
      "outputs": [],
      "stateMutability": "nonpayable",
      "type": "function"
    },
    {
      "inputs": [
        {
          "internalType": "address",
          "name": "",
          "type": "address"
        }
      ],
      "name": "whitelist",
      "outputs": [
        {
          "internalType": "bool",
          "name": "",
          "type": "bool"
        }
      ],
      "stateMutability": "view",
      "type": "function"
    },
    {
      "inputs": [
        {
          "internalType": "uint256",
          "name": "i",
          "type": "uint256"
        }
      ],
      "name": "zeros",
      "outputs": [
        {
          "internalType": "bytes32",
          "name": "",
          "type": "bytes32"
        }
      ],
      "stateMutability": "pure",
      "type": "function"
    }
  ],
  "bytecode": "0x60c0604052600380546001600160401b03191690553480156200002157600080fd5b5060405162002b7238038062002b728339810160408190526200004491620009e4565b858585828260008263ffffffff1611620000b15760405162461bcd60e51b815260206004820152602360248201527f5f6c6576656c732073686f756c642062652067726561746572207468616e207a60448201526265726f60e81b60648201526084015b60405180910390fd5b60208263ffffffff1610620001095760405162461bcd60e51b815260206004820152601e60248201527f5f6c6576656c732073686f756c64206265206c657373207468616e20333200006044820152606401620000a8565b6000805463ffffffff191663ffffffff84161781556001600160a01b0382166080525b8263ffffffff168163ffffffff1610156200017d576200015263ffffffff8216620002ac565b63ffffffff821660009081526001602052604090205580620001748162000b2f565b9150506200012c565b506200019b6200018f60018462000b55565b63ffffffff16620002ac565b7fac33ff75c19e70fe83507db0d683fd3465c996598dc972688b7ace676c89077b5550506001600160a01b031660a0525050600680546001600160a01b031916339081179091556000908152600760205260409020805460ff19166001179055600c62000209848262000c0b565b50600d82905560005b600d5481116200026d578181600a811062000231576200023162000cd7565b6020020151600b6000838152602001908152602001600020908162000257919062000c0b565b5080620002648162000ced565b91505062000212565b5060005b600d5481116200029f576000818152600a602052604081205580620002968162000ced565b91505062000271565b5050505050505062000d09565b600081600003620002de57507f2fe54c60d3acabf3343a35b6eba15db4821b340f76e741e2249685ed4899af6c919050565b816001036200030e57507f256a6135777eee2fd26f54b8b7037a25439d5235caee224154186d2b8a52e31d919050565b816002036200033e57507f1151949895e82ab19924de92c40a3d6f7bcb60d92b00504b8199613683f0c200919050565b816003036200036e57507f20121ee811489ff8d61f09fb89e313f14959a0f28bb428a20dba6b0b068b3bdb919050565b816004036200039e57507f0a89ca6ffa14cc462cfedb842c30ed221a50a3d6bf022a6a57dc82ab24c157c9919050565b81600503620003ce57507f24ca05c2b5cd42e890d6be94c68d0689f4f21c9cec9c0f13fe41d566dfb54959919050565b81600603620003fe57507f1ccb97c932565a92c60156bdba2d08f3bf1377464e025cee765679e604a7315c919050565b816007036200042e57507f19156fbd7d1a8bf5cba8909367de1b624534ebab4f0f79e003bccdd1b182bdb4919050565b816008036200045e57507f261af8c1f0912e465744641409f622d466c3920ac6e5ff37e36604cb11dfff80919050565b816009036200048d57507e58459724ff6ca5a1652fcbc3e82b93895cf08e975b19beab3f54c217d1c007919050565b81600a03620004bd57507f1f04ef20dee48d39984d8eabe768a70eafa6310ad20849d4573c3c40c2ad1e30919050565b81600b03620004ed57507f1bea3dec5dab51567ce7e200a30f7ba6d4276aeaa53e2686f962a46c66d511e5919050565b81600c036200051d57507f0ee0f941e2da4b9e31c3ca97a40d8fa9ce68d97c084177071b3cb46cd3372f0f919050565b81600d036200054d57507f1ca9503e8935884501bbaf20be14eb4c46b89772c97b96e3b2ebf3a36a948bbd919050565b81600e036200057d57507f133a80e30697cd55d8f7d4b0965b7be24057ba5dc3da898ee2187232446cb108919050565b81600f03620005ad57507f13e6d8fc88839ed76e182c2a779af5b2c0da9dd18c90427a644f7e148a6253b6919050565b81601003620005dd57507f1eb16b057a477f4bc8f572ea6bee39561098f78f15bfb3699dcbb7bd8db61854919050565b816011036200060d57507f0da2cb16a1ceaabf1c16b838f7a9e3f2a3a3088d9e0a6debaa748114620696ea919050565b816012036200063d57507f24a3b3d822420b14b5d8cb6c28a574f01e98ea9e940551d2ebd75cee12649f9d919050565b816013036200066d57507f198622acbd783d1b0d9064105b1fc8e4d8889de95c4c519b3f635809fe6afc05919050565b816014036200069d57507f29d7ed391256ccc3ea596c86e933b89ff339d25ea8ddced975ae2fe30b5296d4919050565b81601503620006cd57507f19be59f2f0413ce78c0c3703a3a5451b1d7f39629fa33abd11548a76065b2967919050565b81601603620006fd57507f1ff3f61797e538b70e619310d33f2a063e7eb59104e112e95738da1254dc3453919050565b816017036200072d57507f10c16ae9959cf8358980d9dd9616e48228737310a10e2b6b731c1a548f036c48919050565b816018036200075d57507f0ba433a63174a90ac20992e75e3095496812b652685b5e1a2eae0b1bf4e8fcd1919050565b816019036200078d57507f019ddb9df2bc98d987d0dfeca9d2b643deafab8f7036562e627c3667266a044c919050565b81601a03620007bd57507f2d3c88b23175c5a5565db928414c66d1912b11acf974b2e644caaac04739ce99919050565b81601b03620007ed57507f2eab55f6ae4e66e32c5189eed5c470840863445760f5ed7e7b69b2a62600f354919050565b81601c036200081c57507e2df37a2642621802383cf952bf4dd1f32e05433beeb1fd41031fb7eace979d919050565b81601d036200084c57507f104aeb41435db66c3e62feccc1d6f5d98d0a0ed75d1374db457cf462e3a1f427919050565b81601e036200087c57507f1f3c6fd858e9a7d4b0d1f38e256a09d81d5a5e3c963987e2d4b814cfab7c6ebb919050565b81601f03620008ac57507f2c7a07d20dff79d01fecedc1134284a8d08436606c93693b67e333f671bf69cc919050565b60405162461bcd60e51b815260206004820152601360248201527f496e646578206f7574206f6620626f756e6473000000000000000000000000006044820152606401620000a8565b6001600160a01b03811681146200090b57600080fd5b50565b634e487b7160e01b600052604160045260246000fd5b604051601f8201601f191681016001600160401b03811182821017156200094f576200094f6200090e565b604052919050565b600082601f8301126200096957600080fd5b81516001600160401b038111156200098557620009856200090e565b60206200099b601f8301601f1916820162000924565b8281528582848701011115620009b057600080fd5b60005b83811015620009d0578581018301518282018401528201620009b3565b506000928101909101919091529392505050565b60008060008060008060c08789031215620009fe57600080fd5b865163ffffffff8116811462000a1357600080fd5b602088015190965062000a2681620008f5565b604088015190955062000a3981620008f5565b60608801519094506001600160401b038082111562000a5757600080fd5b62000a658a838b0162000957565b94506080890151935060a089015191508082111562000a8357600080fd5b818901915089601f83011262000a9857600080fd5b604051610140808201828110848211171562000ab85762000ab86200090e565b6040528301818c82111562000acc57600080fd5b845b8281101562000b065780518581111562000ae85760008081fd5b62000af68f82890162000957565b8352506020918201910162000ace565b5050508093505050509295509295509295565b634e487b7160e01b600052601160045260246000fd5b600063ffffffff80831681810362000b4b5762000b4b62000b19565b6001019392505050565b63ffffffff82811682821603908082111562000b755762000b7562000b19565b5092915050565b600181811c9082168062000b9157607f821691505b60208210810362000bb257634e487b7160e01b600052602260045260246000fd5b50919050565b601f82111562000c0657600081815260208120601f850160051c8101602086101562000be15750805b601f850160051c820191505b8181101562000c025782815560010162000bed565b5050505b505050565b81516001600160401b0381111562000c275762000c276200090e565b62000c3f8162000c38845462000b7c565b8462000bb8565b602080601f83116001811462000c77576000841562000c5e5750858301515b600019600386901b1c1916600185901b17855562000c02565b600085815260208120601f198616915b8281101562000ca85788860151825594840194600190910190840162000c87565b508582101562000cc75787850151600019600388901b60f8161c191681555b5050505050600190811b01905550565b634e487b7160e01b600052603260045260246000fd5b60006001820162000d025762000d0262000b19565b5060010190565b60805160a051611e2e62000d44600039600081816101f0015261150501526000818161040f0152818161074c015261080e0152611e2e6000f3fe608060405234801561001057600080fd5b50600436106101ae5760003560e01c8063ba70f757116100ee578063e829558811610097578063f178e47c11610071578063f178e47c14610431578063fa52c7d814610451578063fc7e9c6f14610474578063ff3c1a8f1461048c57600080fd5b8063e8295588146103d0578063ec732959146103e3578063ed33639f1461040a57600080fd5b8063cc2ee196116100c8578063cc2ee196146103a0578063cd87a3b4146103b5578063ce8f6377146103bd57600080fd5b8063ba70f7571461034e578063c2b40ae41461036b578063c93f0c7f1461038b57600080fd5b8063611f4a2b1161015b5780638da5cb5b116101355780638da5cb5b146102f557806390eeb02b146103085780639b19251a146103185780639fca51691461033b57600080fd5b8063611f4a2b146102ac5780636d9833e3146102bf578063839df945146102d257600080fd5b8063414a37ba1161018c578063414a37ba1461023f5780634ecf518b146102745780635bb939951461029957600080fd5b80632997e86b146101b35780632b7ac3f3146101eb57806338416ee31461022a575b600080fd5b6101d66101c13660046117c9565b60046020526000908152604090205460ff1681565b60405190151581526020015b60405180910390f35b6102127f000000000000000000000000000000000000000000000000000000000000000081565b6040516001600160a01b0390911681526020016101e2565b61023d6102383660046117f9565b6104a1565b005b6102667f30644e72e131a029b85045b68181585d2833e84879b9709143e1f593f000000181565b6040519081526020016101e2565b6000546102849063ffffffff1681565b60405163ffffffff90911681526020016101e2565b6102666102a736600461182e565b61063a565b61023d6102ba366004611850565b61088c565b6101d66102cd3660046117c9565b610935565b6101d66102e03660046117c9565b60056020526000908152604090205460ff1681565b600654610212906001600160a01b031681565b6003546102849063ffffffff1681565b6101d6610326366004611850565b60086020526000908152604090205460ff1681565b61023d610349366004611850565b6109b3565b60035463ffffffff16600090815260026020526040902054610266565b6102666103793660046117c9565b60026020526000908152604090205481565b610393610a31565b6040516101e29190611872565b6103a8610acf565b6040516101e291906118fc565b610284601e81565b61023d6103cb3660046119fb565b610bf8565b6102666103de3660046117c9565b610c7e565b6102667f2fe54c60d3acabf3343a35b6eba15db4821b340f76e741e2249685ed4899af6c81565b6102127f000000000000000000000000000000000000000000000000000000000000000081565b61026661043f3660046117c9565b60016020526000908152604090205481565b6101d661045f366004611850565b60076020526000908152604090205460ff1681565b60035461028490640100000000900463ffffffff1681565b6104946112ab565b6040516101e29190611aa5565b6001600160a01b03811660009081526008602052604090205460ff1661050e5760405162461bcd60e51b815260206004820152601860248201527f4e6f6e2073656920696e2077686974656c69737420667261000000000000000060448201526064015b60405180910390fd5b3360009081526007602052604090205460ff1661056d5760405162461bcd60e51b815260206004820152601a60248201527f4f6e6c792076616c696461746f722063616e20636f6d6d6974210000000000006044820152606401610505565b60008381526009602052604090205460ff16156105f25760405162461bcd60e51b815260206004820152602160248201527f5468697320756e69717565206861736820697320616c7265616479207573656460448201527f21000000000000000000000000000000000000000000000000000000000000006064820152608401610505565b6105fb8261133d565b6000928352600960209081526040808520805460ff199081166001179091556001600160a01b0390931685526008909152909220805490921690915550565b60007f30644e72e131a029b85045b68181585d2833e84879b9709143e1f593f000000183106106ab5760405162461bcd60e51b815260206004820181905260248201527f5f6c6566742073686f756c6420626520696e7369646520746865206669656c646044820152606401610505565b7f30644e72e131a029b85045b68181585d2833e84879b9709143e1f593f000000182106107245760405162461bcd60e51b815260206004820152602160248201527f5f72696768742073686f756c6420626520696e7369646520746865206669656c6044820152601960fa1b6064820152608401610505565b604051633f1a118760e01b8152600481018490526000602482018190526044820181905284917f00000000000000000000000000000000000000000000000000000000000000006001600160a01b031690633f1a1187906064016040805180830381865afa15801561079a573d6000803e3d6000fd5b505050506040513d601f19601f820116820180604052508101906107be9190611ab8565b90925090507f30644e72e131a029b85045b68181585d2833e84879b9709143e1f593f0000001848308604051633f1a118760e01b81526004810182905260248101839052600060448201529092507f00000000000000000000000000000000000000000000000000000000000000006001600160a01b031690633f1a1187906064016040805180830381865afa15801561085c573d6000803e3d6000fd5b505050506040513d601f19601f820116820180604052508101906108809190611ab8565b50925050505b92915050565b3360009081526007602052604090205460ff166109115760405162461bcd60e51b815260206004820152602660248201527f4f6e6c792076616c696461746f72732063616e2061646420746f20776869746560448201527f206c6973742100000000000000000000000000000000000000000000000000006064820152608401610505565b6001600160a01b03166000908152600860205260409020805460ff19166001179055565b600081810361094657506000919050565b60035463ffffffff16805b63ffffffff81166000908152600260205260409020548403610977575060019392505050565b8063ffffffff166000036109895750601e5b8061099381611b08565b9150508163ffffffff168163ffffffff1603610951575060009392505050565b6006546001600160a01b03163314610a0d5760405162461bcd60e51b815260206004820152601d60248201527f4f6e6c79206f776e65722063616e206164642076616c696461746f72210000006044820152606401610505565b6001600160a01b03166000908152600760205260409020805460ff19166001179055565b60606000600d5467ffffffffffffffff811115610a5057610a5061195e565b604051908082528060200260200182016040528015610a79578160200160208202803683370190505b50905060005b600d54811015610ac9576000818152600a60205260409020548251839083908110610aac57610aac611b28565b602090810291909101015280610ac181611b3e565b915050610a7f565b50919050565b60606000600d5467ffffffffffffffff811115610aee57610aee61195e565b604051908082528060200260200182016040528015610b2157816020015b6060815260200190600190039081610b0c5790505b50905060005b600d54811015610ac9576000818152600b602052604090208054610b4a90611b57565b80601f0160208091040260200160405190810160405280929190818152602001828054610b7690611b57565b8015610bc35780601f10610b9857610100808354040283529160200191610bc3565b820191906000526020600020905b815481529060010190602001808311610ba657829003601f168201915b5050505050828281518110610bda57610bda611b28565b60200260200101819052508080610bf090611b3e565b915050610b27565b600d54841115610c4a5760405162461bcd60e51b815260206004820152600f60248201527f496e76616c6964206f7074696f6e2100000000000000000000000000000000006044820152606401610505565b610c57868685858561140f565b6000848152600a60205260408120805491610c7183611b3e565b9190505550505050505050565b600081600003610caf57507f2fe54c60d3acabf3343a35b6eba15db4821b340f76e741e2249685ed4899af6c919050565b81600103610cde57507f256a6135777eee2fd26f54b8b7037a25439d5235caee224154186d2b8a52e31d919050565b81600203610d0d57507f1151949895e82ab19924de92c40a3d6f7bcb60d92b00504b8199613683f0c200919050565b81600303610d3c57507f20121ee811489ff8d61f09fb89e313f14959a0f28bb428a20dba6b0b068b3bdb919050565b81600403610d6b57507f0a89ca6ffa14cc462cfedb842c30ed221a50a3d6bf022a6a57dc82ab24c157c9919050565b81600503610d9a57507f24ca05c2b5cd42e890d6be94c68d0689f4f21c9cec9c0f13fe41d566dfb54959919050565b81600603610dc957507f1ccb97c932565a92c60156bdba2d08f3bf1377464e025cee765679e604a7315c919050565b81600703610df857507f19156fbd7d1a8bf5cba8909367de1b624534ebab4f0f79e003bccdd1b182bdb4919050565b81600803610e2757507f261af8c1f0912e465744641409f622d466c3920ac6e5ff37e36604cb11dfff80919050565b81600903610e5557507e58459724ff6ca5a1652fcbc3e82b93895cf08e975b19beab3f54c217d1c007919050565b81600a03610e8457507f1f04ef20dee48d39984d8eabe768a70eafa6310ad20849d4573c3c40c2ad1e30919050565b81600b03610eb357507f1bea3dec5dab51567ce7e200a30f7ba6d4276aeaa53e2686f962a46c66d511e5919050565b81600c03610ee257507f0ee0f941e2da4b9e31c3ca97a40d8fa9ce68d97c084177071b3cb46cd3372f0f919050565b81600d03610f1157507f1ca9503e8935884501bbaf20be14eb4c46b89772c97b96e3b2ebf3a36a948bbd919050565b81600e03610f4057507f133a80e30697cd55d8f7d4b0965b7be24057ba5dc3da898ee2187232446cb108919050565b81600f03610f6f57507f13e6d8fc88839ed76e182c2a779af5b2c0da9dd18c90427a644f7e148a6253b6919050565b81601003610f9e57507f1eb16b057a477f4bc8f572ea6bee39561098f78f15bfb3699dcbb7bd8db61854919050565b81601103610fcd57507f0da2cb16a1ceaabf1c16b838f7a9e3f2a3a3088d9e0a6debaa748114620696ea919050565b81601203610ffc57507f24a3b3d822420b14b5d8cb6c28a574f01e98ea9e940551d2ebd75cee12649f9d919050565b8160130361102b57507f198622acbd783d1b0d9064105b1fc8e4d8889de95c4c519b3f635809fe6afc05919050565b8160140361105a57507f29d7ed391256ccc3ea596c86e933b89ff339d25ea8ddced975ae2fe30b5296d4919050565b8160150361108957507f19be59f2f0413ce78c0c3703a3a5451b1d7f39629fa33abd11548a76065b2967919050565b816016036110b857507f1ff3f61797e538b70e619310d33f2a063e7eb59104e112e95738da1254dc3453919050565b816017036110e757507f10c16ae9959cf8358980d9dd9616e48228737310a10e2b6b731c1a548f036c48919050565b8160180361111657507f0ba433a63174a90ac20992e75e3095496812b652685b5e1a2eae0b1bf4e8fcd1919050565b8160190361114557507f019ddb9df2bc98d987d0dfeca9d2b643deafab8f7036562e627c3667266a044c919050565b81601a0361117457507f2d3c88b23175c5a5565db928414c66d1912b11acf974b2e644caaac04739ce99919050565b81601b036111a357507f2eab55f6ae4e66e32c5189eed5c470840863445760f5ed7e7b69b2a62600f354919050565b81601c036111d157507e2df37a2642621802383cf952bf4dd1f32e05433beeb1fd41031fb7eace979d919050565b81601d0361120057507f104aeb41435db66c3e62feccc1d6f5d98d0a0ed75d1374db457cf462e3a1f427919050565b81601e0361122f57507f1f3c6fd858e9a7d4b0d1f38e256a09d81d5a5e3c963987e2d4b814cfab7c6ebb919050565b81601f0361125e57507f2c7a07d20dff79d01fecedc1134284a8d08436606c93693b67e333f671bf69cc919050565b60405162461bcd60e51b815260206004820152601360248201527f496e646578206f7574206f6620626f756e6473000000000000000000000000006044820152606401610505565b919050565b6060600c80546112ba90611b57565b80601f01602080910402602001604051908101604052809291908181526020018280546112e690611b57565b80156113335780601f1061130857610100808354040283529160200191611333565b820191906000526020600020905b81548152906001019060200180831161131657829003601f168201915b5050505050905090565b60008181526005602052604090205460ff16156113a65760405162461bcd60e51b815260206004820152602160248201527f54686520636f6d6d69746d656e7420686173206265656e207375626d697474656044820152601960fa1b6064820152608401610505565b6000818152600560205260408120805460ff191660011790556113c8826115ea565b6040805163ffffffff8316815242602082015291925083917f401999886e5f90a91b92a0bfb7e2d48f714651a4d1c929bb3a753525ba066b91910160405180910390a25050565b60008581526004602052604090205460ff161561146e5760405162461bcd60e51b815260206004820181905260248201527f546865206e756c6c696669657220686173206265656e207375626d69747465646044820152606401610505565b61147784610935565b6114c35760405162461bcd60e51b815260206004820152601c60248201527f43616e6e6f742066696e6420796f7572206d65726b6c6520726f6f74000000006044820152606401610505565b6040805180820182528681526020810186905290517ff5c9d69e0000000000000000000000000000000000000000000000000000000081526001600160a01b037f0000000000000000000000000000000000000000000000000000000000000000169163f5c9d69e9161153e91879187918791600401611bb4565b602060405180830381865afa15801561155b573d6000803e3d6000fd5b505050506040513d601f19601f8201168201806040525081019061157f9190611c1b565b6115cb5760405162461bcd60e51b815260206004820152600d60248201527f496e76616c69642070726f6f66000000000000000000000000000000000000006044820152606401610505565b505050600091825250600460205260409020805460ff19166001179055565b60035460008054909163ffffffff64010000000090910481169161161091166002611d4e565b63ffffffff168163ffffffff16036116905760405162461bcd60e51b815260206004820152603060248201527f4d65726b6c6520747265652069732066756c6c2e204e6f206d6f7265206c656160448201527f7665732063616e206265206164646564000000000000000000000000000000006064820152608401610505565b8083600080805b60005463ffffffff908116908216101561173b576116b6600286611d6b565b63ffffffff166000036116f4578392506116d58163ffffffff16610c7e565b63ffffffff821660009081526001602052604090208590559150611710565b63ffffffff811660009081526001602052604090205492508391505b61171a838361063a565b9350611727600286611d8e565b94508061173381611db1565b915050611697565b50600354600090601e906117569063ffffffff166001611dd4565b6117609190611d6b565b6003805463ffffffff191663ffffffff831690811790915560009081526002602052604090208590559050611796866001611dd4565b6003805463ffffffff929092166401000000000267ffffffff000000001990921691909117905550939695505050505050565b6000602082840312156117db57600080fd5b5035919050565b80356001600160a01b03811681146112a657600080fd5b60008060006060848603121561180e57600080fd5b8335925060208401359150611825604085016117e2565b90509250925092565b6000806040838503121561184157600080fd5b50508035926020909101359150565b60006020828403121561186257600080fd5b61186b826117e2565b9392505050565b6020808252825182820181905260009190848201906040850190845b818110156118aa5783518352928401929184019160010161188e565b50909695505050505050565b6000815180845260005b818110156118dc576020818501810151868301820152016118c0565b506000602082860101526020601f19601f83011685010191505092915050565b6000602080830181845280855180835260408601915060408160051b870101925083870160005b8281101561195157603f1988860301845261193f8583516118b6565b94509285019290850190600101611923565b5092979650505050505050565b634e487b7160e01b600052604160045260246000fd5b6040805190810167ffffffffffffffff811182821017156119a557634e487b7160e01b600052604160045260246000fd5b60405290565b600082601f8301126119bc57600080fd5b6119c4611974565b8060408401858111156119d657600080fd5b845b818110156119f05780358452602093840193016119d8565b509095945050505050565b6000806000806000806101608789031215611a1557600080fd5b8635955060208088013595506040808901359550611a368a60608b016119ab565b94508960bf8a0112611a4757600080fd5b611a4f611974565b806101208b018c811115611a6257600080fd5b60a08c015b81811015611a8657611a798e826119ab565b8452928501928401611a67565b50819650611a948d826119ab565b955050505050509295509295509295565b60208152600061186b60208301846118b6565b60008060408385031215611acb57600080fd5b505080516020909101519092909150565b634e487b7160e01b600052601260045260246000fd5b634e487b7160e01b600052601160045260246000fd5b600063ffffffff821680611b1e57611b1e611af2565b6000190192915050565b634e487b7160e01b600052603260045260246000fd5b600060018201611b5057611b50611af2565b5060010190565b600181811c90821680611b6b57607f821691505b602082108103610ac957634e487b7160e01b600052602260045260246000fd5b8060005b6002811015611bae578151845260209384019390910190600101611b8f565b50505050565b6101408101611bc38287611b8b565b60408083018660005b6002811015611bf357611be0838351611b8b565b9183019160209190910190600101611bcc565b50505050611c0460c0830185611b8b565b611c12610100830184611b8b565b95945050505050565b600060208284031215611c2d57600080fd5b8151801515811461186b57600080fd5b600181815b80851115611c7a578163ffffffff04821115611c6057611c60611af2565b80851615611c6d57918102915b93841c9390800290611c42565b509250929050565b600082611c9157506001610886565b81611c9e57506000610886565b8160018114611cb45760028114611cbe57611cef565b6001915050610886565b60ff841115611ccf57611ccf611af2565b6001841b915063ffffffff821115611ce957611ce9611af2565b50610886565b5060208310610133831016604e8410600b8410161715611d26575081810a63ffffffff811115611d2157611d21611af2565b610886565b611d308383611c3d565b8063ffffffff04821115611d4657611d46611af2565b029392505050565b600063ffffffff611d63818516828516611c82565b949350505050565b600063ffffffff80841680611d8257611d82611adc565b92169190910692915050565b600063ffffffff80841680611da557611da5611adc565b92169190910492915050565b600063ffffffff808316818103611dca57611dca611af2565b6001019392505050565b63ffffffff818116838216019080821115611df157611df1611af2565b509291505056fea2646970667358221220b40d16412db6aeeba13396e8132fef1efe55010ba4beea91f0b7d8042ae0134864736f6c63430008110033",
  "linkReferences": {},
  "deployedLinkReferences": {}
}